:1007830020202020202000303132363334353738D2
:09079300394142443A00543A0095
:10071E00C100C101015D00016000016200015E00C7
:10072E00016100015F00075000000000000000069C
:07073E00572020202020437A
:0F06C5008F807F057E001206D4D2A77F057E00AE
:1006D400D3EF9400EE940040147D6E7C00ED1D7009
:0D06E400011CED4C70F7EF1F70E61E80E367
:0106F10022E6
:0A080C00C2A5C2A61206C5C2A722AB
:0A081600C2A5D2A61206C5C2A72291
:10076600C2A5C2A77F3C12080C7F0C12080C7F069C
:0D07760012080C7F0112080C7F8002080C95
:040689007B007C0076
:0A068D008B408A4189428C438D4462
:10069700E4F545F546C3E5469544E5459543501DC4
:1006A700AB40AA41A942854682854583120115FFC1
:0D06B7001208160546E54670DC054580D8A2
:0106C4002213
:0F07DD00EF7F08A2E092B4D2B6C2B6C313DFF426
:0107EC0022EA
:0F07ED007F08C313A2B492E7D2B6C2B6DFF4FFFF
:0107FC0022DA
:1007B300AE05C2B5C2B6D2B51207DDAF061207DD6C
:0507C300D2B6C2B52210
:1007C800C2B5C2B6D2B5EF4401FF1207DD1207ED7C
:0407D800D2B6C2B51E
:0107DC0022FA
:0F07FD003002047D808002E4FD7F8E1207B3225C
:10074600AC05AB07C2021207FDAF03EC75F00A84D5
:10075600C454F0FEEC75F00A84E5F04EFD0207B3D2
:100340007F801207C8EF5470C4540F75F00AA4FEE2
:10035000EF540F2E1201427F821207C8EF5470C46F
:10036000540F75F00AA4FEEF540F2E9000011201F5
:10037000547F841207C8EF5470C4540F75F00AA458
:10038000FEEF540F2E9000021201547F861207C810
:10039000EF5470C4540F75F00AA4FEEF540F2E9062
:1003A00000041201547F8A1207C8EF5470C4540F1E
:1003B00075F00AA4FEEF540F2E9000031201547F33
:1003C000881207C8EF5470C4540F75F00AA4FEEFEA
:1003D000540F2E9000051201547F8C1207C8EF5461
:1003E00070C4540F75F00AA4FEEF540F2E9000064F
:0303F000020154B3
:1005150090000612011575F00A8424309000071228
:10052500015490000612011575F00A84E5F0243097
:10053500900008120154900009742D120154900086
:100545000512011575F00A84243090000A12015431
:1005550090000512011575F00A84E5F0243090002D
:100565000B12015490000C742D12015490000412CA
:10057500011575F00A84243090000D120154900085
:100585000412011575F00A84E5F0243090000E126E
:09059500015490000FE40201542E
:10059E0090000212011575F00A842430900010129A
:1005AE00015490000212011575F00A84E5F0243012
:1005BE00900011120154900012743A1201549000DE
:1005CE000112011575F00A842430900013120154A3
:1005DE0090000112011575F00A84E5F024309000A8
:1005EE0014120154900015743A1201541200FCFFBB
:1005FE0075F00A842430900016120154EF75F00A3B
:10060E0084E5F0243090001712015490000FE4029C
:02061E00015485
:1006F2007F801207C8EF30E707E4FD7F80120746CC
:10070200E4FD7F821207467D157F8C1207467D0C21
:0C0712007F881207467D117F8602074693
:100620008B408A4189421200FCFD7F80120746AB55
:1006300040AA41A942900001120115FD7F821207D4
:1006400046AB40AA41A942900002120115FD7F84E9
:10065000120746AB40AA41A942900006120115FDBF
:100660007F8C120746AB40AA41A9429000051201B7
:1006700015FD7F88120746AB40AA41A942900004AD
:09068000120115FD7F86020746F8
:10079C00E4FFFE7590F0AD90ED64F060060F755CB3
:0607AC00438003E4FEFFA0
:0107B2002224
:1003F300E4F540F541F542F54378447C00FD7BFF8D
:100403007A07798AFE7F0C1200D67590FEAF90EFC3
:1004130064FE60067540007541037590FDAF90EF73
:1004230064FD60067540007541027590FBAF90EF67
:1004330064FB60067540007541017590F7AF90EF5E
:1004430064F76005E4F540F54175907FAF90EF6484
:100453007F6005E4F542F5437590BFAF90EF64BF4D
:1004630060067542007543017590DFAF90EF64DF5E
:100473006006754200754302E54325E025E0244408
:050483002541F8E6FF31
:010488002251
:10027B0012079CEF4E700302033F20000302033F63
:10028B001203F3EF24D0602F14602514601B14604D
:10029B001114600A1470270563755C538023056481
:1002AB0080100565755C4880180567755C44801186
:1002BB000568755C4D800A0569755C598003755C32
:1002CB0043E563D3943B400BE56375F03C8485F0C9
:1002DB00630564E564D3943B400BE56475F03C84A3
:1002EB0085F0640565E565D39417400BE56575F0FE
:1002FB00188485F0650567E567D3941F400BE567A8
:10030B0075F01F8485F0670568E568D3940C400B86
:10031B00E56875F00C8485F0680569E569D394642C
:10032B004009E56975F0648485F0697B007A007992
:05033B00631206202200
:03000300020820D0
:09082000300003C20032D20032A4
:1001760078217C007D007BFF7A0779967E007F03DD
:100186001200D678247C007D007BFF7A0779997E61
:10019600007F031200D6D2AFD2A8D288D2AFD2AA9D
:1001A600D28A1207661206F27F8012080C7A00794C
:1001B600217D021206897FC012080C7B007A007925
:1001C600247D027C0012068D2000437B007A007994
:1001D60027120340852763852864852965852B6753
:1001E600852C68852D69E4FFFE742E2FF8E6FD74D4
:1001F6006A2FF8A60574372FF8E6FD74732FF8A654
:10020600050FBF00010EEF64094E70DD8003120278
:100216007B7B007A00796312051512059E7F821298
:10022600080C7A00796A7D087C0012068D30000879
:100236007B007A00795780067BFF7A0779837D06F3
:100246007C0012068D7FC212080C7A0079737D0835
:100256001206893000087B007A00795780067BFFFA
:100266007A0779837D067C0012068D7F0A7E00124E
:0502760006D40201AEF8
:030000000204896E
:0C048900787FE4F6D8FD75817B0204D07A
:10000600E709F608DFFA8046E709F208DFFA803EDC
:1000160088828C83E709F0A3DFFA8032E309F608C9
:10002600DFFA8078E309F208DFFA807088828C8331
:10003600E309F0A3DFFA806489828A83E0A3F608E5
:10004600DFFA805889828A83E0A3F208DFFA804CBF
:1000560080D280FA80C680D4806980F28033801096
:1000660080A680EA809A80A880DA80E280CA8033FF
:1000760089828A83ECFAE493A3C8C582C8CCC58377
:10008600CCF0A3C8C582C8CCC583CCDFE9DEE78047
:100096000D89828A83E493A3F608DFF9ECFAA9F0C6
:1000A600EDFB2289828A83ECFAE0A3C8C582C8CC1C
:1000B600C583CCF0A3C8C582C8CCC583CCDFEADE35
:1000C600E880DB89828A83E493A3F208DFF980CC97
:1000D60088F0EF60010E4E60C388F0ED2402B40490
:1000E6000050B9F582EB2402B4040050AF23234537
:0600F60082239000567306
:1000FC00BB010689828A83E0225002E722BBFE0202
:09010C00E32289828A83E4932234
:10011500BB010CE58229F582E5833AF583E022509F
:1001250006E92582F8E622BBFE06E92582F8E222E9
:0D013500E58229F582E5833AF583E4932203
:10014200BB010689828A83F0225002F722BBFE019C
:02015200F32296
:10015400F8BB010DE58229F582E5833AF583E8F0E1
:10016400225006E92582C8F622BBFE05E92582C88D
:02017400F22275
:10049500020176E493A3F8E493A34003F68001F206
:1004A50008DFF48029E493A3F85407240CC8C33368
:1004B500C4540F4420C8834004F456800146F6DF37
:1004C500E4800B010204081020408090071EE47EA2
:1004D500019360BCA3FF543F30E509541FFEE4932C
:1004E500A360010ECF54C025E060A840B8E493A3F3
:1004F500FAE493A3F8E493A3C8C582C8CAC583CA1E
:10050500F0A3C8C582C8CAC583CADFE9DEE780BED5
:0107450000B3
:00000001FF
