:0D0175000B0869206C6F766520796F7500AE
:0A012E00C2A58F80D2A77F027E00D9
:100138007C007D641200BCEF1FAC0670011E4C7081
:01014800F6C0
:010149002293
:08018300C2A612012EC2A72240
:08018B00D2A612012EC2A72228
:100161007F381201837F061201837F0C1201837F86
:040171000102018303
:10014A00E4FE7C40BF01032D8002ED2C2480FF12C7
:07015A000183AF0302018BDA
:0A00CE008E138F148B158A16891704
:1000D800E4F518F519C3E5199514E5189513501D9D
:1000E800AB15AA16A91785198285188312008FFFE8
:0D00F80012018B0519E51970DC051880D880
:0101050022D7
:10010600120161E4FAAD0274082AF8E6FB7F0112D7
:10011600014A0ABA0AEF7FC01201837B007A00798E
:08012600087F0A7E000200CEF2
:03000000020003F8
:0C000300787FE4F6D8FD75811902004AF0
:10008F00BB010CE58229F582E5833AF583E0225026
:10009F0006E92582F8E622BBFE06E92582F8E22270
:0D00AF00E58229F582E5833AF583E493228A
:1000BC00EF8DF0A4A8F0CF8CF0A428CE8DF0A42E58
:0200CC00FE2212
:10000F00020106E493A3F8E493A34003F68001F200
:10001F0008DFF48029E493A3F85407240CC8C333F2
:10002F00C4540F4420C8834004F456800146F6DFC1
:10003F00E4800B0102040810204080900175E47EDB
:10004F00019360BCA3FF543F30E509541FFEE493B6
:10005F00A360010ECF54C025E060A840B8E493A37D
:10006F00FAE493A3F8E493A3C8C582C8CAC583CAA8
:10007F00F0A3C8C582C8CAC583CADFE9DEE780BE60
:01018200007C
:00000001FF
