:0A0262003F065B4F666D7D077F6F5E
:0B024B00010C3202080000020A000053
:0B025700EF1FAC0670011E4C70F62279
:10023B00758901758CFF758A06D2AFD2A9D28C2233
:03000B0002019F50
:09019F00C0E0C0F0C0D075D0181A
:1001A800AE08AF097C007D5012009A758CFF758AE5
:1001B80006050BE50B7002050AD39FEE6480F8E58F
:1001C8000A6480984004D2A08002C2A0E50CB50B56
:0901D80008E4B50A04F50AF50B70
:0701E100D0D0D0F0D0E032D5
:10012500AB07AA067C037DE812009A7C007D0A12C3
:10013500009A74622DF58274023CF583E493F50D03
:100145007C007D64AF03AE0212009A7C007D0A122A
:10015500009A74622DF58274023CF583E493F50EE2
:100165007C007D0AAF03AE0212009A7C007D0A1264
:10017500009A74622DF58274023CF583E493F50FC1
:10018500AE02AF037C007D0A12009A74622DF582DF
:0A01950074023CF583E493F5102298
:1001E800E4FDED14600E14601314601424037016FB
:1001F800C2A28002D2A2C2A3C2A4800AC2A2800262
:10020800D2A2D2A3C2A4C374039D240DF8E6F5803C
:0E0218007F647E00120257E4F5800DBD04C421
:0102260022B5
:1002270012023B7F941200008E088F0912012512DB
:0402370001E880EF6B
:0300000002000EED
:0C000E00787FE4F6D8FD75811F020055D4
:10009A00C2D5EC30E709B2D5E4C39DFDE49CFCEE81
:1000AA0030E715B2D5E4C39FFFE49EFE1200D0C329
:1000BA00E49DFDE49CFC80031200D030D507C3E424
:0600CA009FFFE49EFE22F0
:10001A00020227E493A3F8E493A34003F68001F2D3
:10002A0008DFF48029E493A3F85407240CC8C333E7
:10003A00C4540F4420C8834004F456800146F6DFB6
:10004A00E4800B010204081020408090024BE47EF9
:10005A00019360BCA3FF543F30E509541FFEE493AB
:10006A00A360010ECF54C025E060A840B8E493A372
:10007A00FAE493A3F8E493A3C8C582C8CAC583CA9D
:10008A00F0A3C8C582C8CAC583CADFE9DEE780BE55
:0102560000A7
:1000D000BC000BBE0029EF8DF084FFADF022E4CC14
:1000E000F875F008EF2FFFEE33FEEC33FCEE9DECDD
:1000F000984005FCEE9DFE0FD5F0E9E4CEFD22ED23
:10010000F8F5F0EE8420D21CFEADF075F008EF2F6C
:10011000FFED33FD4007985006D5F0F222C398FD5D
:050120000FD5F0EA22FA
:00000001FF
