:1002E6003F065B4F666D7D077F6F777C395E797160
:1001D6007FE81203021202308F09E4F508E509757B
:1001E600F00A849002E693F580D2A2C2A3C2A4E5E7
:1001F60009C3941950077FE81203028007AF097EEE
:100206000012026CE50975F00A84E5F09002E693A7
:10021600F580C2A2C2A3C2A4AF097E0012026C0579
:0A02260008E508C3940A40B580AB58
:06030200000000DFFB22F9
:1002D000E4F50AC2B77F78120302D2B77F10120387
:0602E000027F5002030240
:10029200E4FD7E08C2B77F01120302D2B7EDC31399
:1002A200FD30B7034305807F0B120302DEE6AF0584
:0102B2002229
:0202B300AE0794
:1002B5007D08C2B7EE1392B77F0C120302D2B7EED8
:0A02C500C313FE7F05120302DDE8FB
:0102CF00220C
:100230001202D07FCC1202B37F441202B31202D05A
:100240007FCC1202B37FBE1202B3120292AC07122D
:100250000292EFFEAD04EDFFAC06E412010EE4FBEA
:0B026000FA7980783D1200031201477C
:01026B002270
:10026C007D0A7C00C3EF9419EE94004016ED1DAE90
:10027C000470011C4E6009B2957F6412030280ED7C
:05028C00C29522C2959D
:01029100224A
:10000300EC4D6011E8497017ED33EC3304600DE4F7
:10001300FCFFFEFD22E933E8330470F80201B3125A
:10002300017E58046009E4CC24815006285009025B
:1000330001BD2840030201BAC0E0EB4A7044B98015
:1000430006D0E0FB0201A9EF4E701CBD8008EBFF58
:10005300EAFEE9FD80EBE98DF0A4FEE5F00200EC99
:10006300E9CDF9EAFEEBFFEF89F0A4FCE5F0CE89D8
:10007300F0A42EFFE435F0CD89F0A42DFEE435F095
:100083008067EF4E7005BD80D780C3EF8BF0A4ACC3
:10009300F0EE8BF0A42CFCE435F0F8EF8AF0A42CFE
:1000A300E5F038FCE433CB8DF0A42CFCE5F03BF811
:1000B300EE8AF0A42CFCE5F038F8E433CF89F0A401
:1000C3002CFCE5F038CF3400CE89F0A42FFFE5F007
:1000D3003EFEE433C98DF0A42EFEE5F039CD8AF05F
:1000E300A42FFFE5F03EFEE43DFD33D0E0FB5007D7
:1000F3000BBB000F0201BDEC2CFCEF33FFEE33FE14
:06010300ED33FD02019541
:1001090075F020800E75F010800575F0087D007E71
:10011900007F003392D530D5031201C8EC3340106B
:10012900EF33FFEE33FEED33FDEC33FCD5F0ED227A
:0E013900E5F0247EA2D513CC92E7CDCEFF22B6
:10014700EDD2E7CD33EC3392D524814006E4FFFEB0
:10015700FDFC22FCE4CFCECDCC24E0501174FF800F
:10016700EDC3CC13CCCD13CDCE13CECF13CF0470AC
:07017700F030D5DE0201C8E3
:10017E00E9D2E7C933E833F892D5EDD2E7CD33ECC7
:07018E0033FC5002B2D52240
:10019500EC30E7100FBF000C0EBE00080DBD0004CB
:1001A5000BEB6014A2D5EB13FCED92E7FD2274FF77
:1001B500FCFDFEFF22E480F8A2D574FF13FC7D80D0
:0301C500E480EFE4
:030000000202F603
:0C02F600787FE4F6D8FD75810A0201D67D
:0E01C800C3E49FFFE49EFEE49DFDE49CFC2248
:00000001FF
