:0C033A000A083F065B4F666D7D077F6F71
:100262007FE81203471202AA8F13E4F512E5137511
:10027200F00A84540F2408F8E6F580C284D2857F00
:10028200E8120347E51375F00A84E5F0540F2408D9
:10029200F8E6F580D284C2857FE81203470512E5AD
:0802A20012C3940A40C780BD9D
:06034700000000DFFB22B4
:10032400E4F514C2B77F78120347D2B77F101203E3
:06033400477F5002034761
:1002E600E4FD7E08C2B77F01120347D2B7EDC31300
:1002F600FD30B7034305807F0B120347DEE6AF05EB
:0103060022D4
:02030700AE073F
:100309007D08C2B7EE1392B77F0C120347D2B7EE3E
:0A031900C313FE7F05120347DDE861
:0103230022B7
:1002AA001203247FCC1203077F441203071203248C
:1002BA007FCC1203077FBE1203071202E6AC0712B5
:1002CA0002E6EFFEAD04EDFFAC06E412010EE4FB1C
:0B02DA00FA7980783D12000312014702
:0102E50022F6
:10000300EC4D6011E8497017ED33EC3304600DE4F7
:10001300FCFFFEFD22E933E8330470F80201B3125A
:10002300017E58046009E4CC24815006285009025B
:1000330001BD2840030201BAC0E0EB4A7044B98015
:1000430006D0E0FB0201A9EF4E701CBD8008EBFF58
:10005300EAFEE9FD80EBE98DF0A4FEE5F00200EC99
:10006300E9CDF9EAFEEBFFEF89F0A4FCE5F0CE89D8
:10007300F0A42EFFE435F0CD89F0A42DFEE435F095
:100083008067EF4E7005BD80D780C3EF8BF0A4ACC3
:10009300F0EE8BF0A42CFCE435F0F8EF8AF0A42CFE
:1000A300E5F038FCE433CB8DF0A42CFCE5F03BF811
:1000B300EE8AF0A42CFCE5F038F8E433CF89F0A401
:1000C3002CFCE5F038CF3400CE89F0A42FFFE5F007
:1000D3003EFEE433C98DF0A42EFEE5F039CD8AF05F
:1000E300A42FFFE5F03EFEE43DFD33D0E0FB5007D7
:1000F3000BBB000F0201BDEC2CFCEF33FFEE33FE14
:06010300ED33FD02019541
:1001090075F020800E75F010800575F0087D007E71
:10011900007F003392D530D5031201C8EC3340106B
:10012900EF33FFEE33FEED33FDEC33FCD5F0ED227A
:0E013900E5F0247EA2D513CC92E7CDCEFF22B6
:10014700EDD2E7CD33EC3392D524814006E4FFFEB0
:10015700FDFC22FCE4CFCECDCC24E0501174FF800F
:10016700EDC3CC13CCCD13CDCE13CECF13CF0470AC
:07017700F030D5DE0201C8E3
:10017E00E9D2E7C933E833F892D5EDD2E7CD33ECC7
:07018E0033FC5002B2D52240
:10019500EC30E7100FBF000C0EBE00080DBD0004CB
:1001A5000BEB6014A2D5EB13FCED92E7FD2274FF77
:1001B500FCFDFEFF22E480F8A2D574FF13FC7D80D0
:0301C500E480EFE4
:030000000201D624
:0C01D600787FE4F6D8FD75811402021D4C
:0E01C800C3E49FFFE49EFEE49DFDE49CFC2248
:1001E200020262E493A3F8E493A34003F68001F2CF
:1001F20008DFF48029E493A3F85407240CC8C3331E
:10020200C4540F4420C8834004F456800146F6DFEC
:10021200E4800B010204081020408090033AE47E3F
:10022200019360BCA3FF543F30E509541FFEE493E1
:10023200A360010ECF54C025E060A840B8E493A3A8
:10024200FAE493A3F8E493A3C8C582C8CAC583CAD3
:10025200F0A3C8C582C8CAC583CADFE9DEE780BE8B
:0103460000B6
:00000001FF
