:100314000455150C0A5A04600000000011083F0639
:0F0324005B4F666D7D077F6F777C395E79710067
:0B000600D2AFD2A8D2AA12026980FB80
:0300030002022EC8
:10022E00C0E0C0F0C083C082C0D075D000C000C096
:10023E0001C002C003C004C005C006C0071201AB56
:10024E00D007D006D005D004D003D002D001D00004
:0B025E00D0D0D082D083D0F0D0E032AE
:030013000201F0F7
:1001F000C0E0C0F0C083C082C0D075D000C000C0D5
:1002000001C002C003C004C005C006C007120146F9
:10021000120269D007D006D005D004D003D002D096
:0E02200001D000D0D0D082D083D0F0D0E03218
:1001460012036E7FA01202EF12037D9202200217A5
:1001560012036E7FA01202EF12037D9202E4FF12D9
:1001660002EF12037D920220020D12036E7FA1128E
:1001760002EF12037D9202200221E4F5241202CA44
:1001860074602524F8A6071203480524E524C394C1
:100196000340EA1202CA8F6312035C1203348563BA
:0401A600A030B3FDD5
:0101AA002232
:1001AB0012036E7FA01202EF12037D920020002B30
:1001BB00E4FF1202EF12037D920020001EE4F521F2
:1001CB0074552521F8E6FF1202EF12037D920020F1
:1001DB0000090521E521C3940440E512033475A001
:0401EB00C330B2FD6E
:0101EF0022ED
:0F036E00D2A1D2A012038BC2A012038BC2A12274
:10033400C2A1C2A012038BD2A112038BD2A01203BA
:040344008BC2A022A6
:0D037D00D2A112038BA2A09203C2A1A20381
:01038A002250
:10034800C2A012038BD2A112038BC2A112038BD2BB
:04035800A002038B71
:10035C00D2A012038BD2A112038BC2A112038BC2A7
:02036C00A022CD
:1002CA00E4F525E52625E0F526D2A112038BA2A0A6
:1002DA00E4334226C2A112038B0525E525C39408FF
:0402EA0040E1AF261A
:0102EE0022ED
:0202EF008F2559
:1002F100C2A1E4F526E5253392A0D2A112038BC257
:10030100A1E52525E0F5250526E526C3940840E568
:02031100D2A078
:0103130022C7
:10026900E4FF74602FF8E675F00A84EF25E0243284
:10027900F8A6F074602FF8E675F00A84FEEF25E021
:100289002431F8A6060FBF04D97B007A0079317DA5
:040299000102001648
:060016008B398A3A893B98
:10001C00E4F53CED14F53DE4FFFE853D3CE53CC3C9
:10002C00940840030200B9E53CB40800504D900020
:10003C0041F828287302005902005D020061020099
:10004C0065020069020071020079020081D2A4806D
:10005C000ED2A48012D2A48016D2A4801AC2A4D22A
:10006C00A3D2A28016C2A4D2A3C2A2800EC2A4C2E2
:10007C00A3D2A28006C2A4C2A3C2A2C3E53C953DF2
:10008C00FFE49400AB39AA3AA93B8F82F5831202A4
:10009C009D2408F8E6F580E4FEFF0FBF00010EEF8B
:0D00AC0064FA4E70F5E4F580053C02002971
:0100B9002224
:05038B0000000000224B
:030000000200BA41
:0C00BA00787FE4F6D8FD75816302010137
:10029D00BB010CE58229F582E5833AF583E0225016
:1002AD0006E92582F8E622BBFE06E92582F8E22260
:0D02BD00E58229F582E5833AF583E493227A
:1000C600020006E493A3F8E493A34003F68001F24A
:1000D60008DFF48029E493A3F85407240CC8C3333B
:1000E600C4540F4420C8834004F456800146F6DF0A
:1000F600E4800B0102040810204080900314E47E83
:10010600019360BCA3FF543F30E509541FFEE493FE
:10011600A360010ECF54C025E060A840B8E493A3C5
:10012600FAE493A3F8E493A3C8C582C8CAC583CAF0
:10013600F0A3C8C582C8CAC583CADFE9DEE780BEA8
:0103330000C9
:00000001FF
